{
  "_format": "hh-sol-artifact-1",
  "contractName": "FountainProtocol",
  "sourceName": "contracts/FountainProtocol.sol",
  "abi": [
    {
      "inputs": [
        {
          "internalType": "address",
          "name": "_treasury",
          "type": "address"
        }
      ],
      "stateMutability": "nonpayable",
      "type": "constructor"
    },
    {
      "anonymous": false,
      "inputs": [
        {
          "indexed": true,
          "internalType": "address",
          "name": "member",
          "type": "address"
        },
        {
          "indexed": true,
          "internalType": "uint256",
          "name": "refundAmount",
          "type": "uint256"
        },
        {
          "indexed": true,
          "internalType": "uint256",
          "name": "finalWishClaimed",
          "type": "uint256"
        },
        {
          "indexed": false,
          "internalType": "uint256",
          "name": "timestamp",
          "type": "uint256"
        }
      ],
      "name": "AutoReleaseTriggered",
      "type": "event"
    },
    {
      "anonymous": false,
      "inputs": [
        {
          "indexed": true,
          "internalType": "address",
          "name": "user",
          "type": "address"
        },
        {
          "indexed": false,
          "internalType": "string",
          "name": "reason",
          "type": "string"
        }
      ],
      "name": "ClaimError",
      "type": "event"
    },
    {
      "anonymous": false,
      "inputs": [
        {
          "indexed": true,
          "internalType": "address",
          "name": "user",
          "type": "address"
        },
        {
          "indexed": false,
          "internalType": "string",
          "name": "reason",
          "type": "string"
        }
      ],
      "name": "DepositError",
      "type": "event"
    },
    {
      "anonymous": false,
      "inputs": [
        {
          "indexed": true,
          "internalType": "address",
          "name": "member",
          "type": "address"
        },
        {
          "indexed": true,
          "internalType": "uint256",
          "name": "refundAmount",
          "type": "uint256"
        },
        {
          "indexed": true,
          "internalType": "uint256",
          "name": "treasuryFee",
          "type": "uint256"
        },
        {
          "indexed": false,
          "internalType": "uint256",
          "name": "totalWishClaimed",
          "type": "uint256"
        },
        {
          "indexed": false,
          "internalType": "uint256",
          "name": "timestamp",
          "type": "uint256"
        }
      ],
      "name": "DripRedeemed",
      "type": "event"
    },
    {
      "anonymous": false,
      "inputs": [
        {
          "indexed": true,
          "internalType": "address",
          "name": "member",
          "type": "address"
        },
        {
          "indexed": true,
          "internalType": "uint256",
          "name": "dripTokens",
          "type": "uint256"
        },
        {
          "indexed": true,
          "internalType": "uint256",
          "name": "maxWishQuota",
          "type": "uint256"
        },
        {
          "indexed": false,
          "internalType": "uint256",
          "name": "depositAmount",
          "type": "uint256"
        },
        {
          "indexed": false,
          "internalType": "uint256",
          "name": "timestamp",
          "type": "uint256"
        }
      ],
      "name": "MembershipCreated",
      "type": "event"
    },
    {
      "anonymous": false,
      "inputs": [
        {
          "indexed": true,
          "internalType": "address",
          "name": "user",
          "type": "address"
        },
        {
          "indexed": false,
          "internalType": "string",
          "name": "reason",
          "type": "string"
        }
      ],
      "name": "RedeemError",
      "type": "event"
    },
    {
      "anonymous": false,
      "inputs": [
        {
          "indexed": true,
          "internalType": "address",
          "name": "member",
          "type": "address"
        },
        {
          "indexed": true,
          "internalType": "uint256",
          "name": "amount",
          "type": "uint256"
        },
        {
          "indexed": true,
          "internalType": "uint256",
          "name": "totalClaimed",
          "type": "uint256"
        },
        {
          "indexed": false,
          "internalType": "uint256",
          "name": "remainingQuota",
          "type": "uint256"
        },
        {
          "indexed": false,
          "internalType": "bool",
          "name": "capReached",
          "type": "bool"
        }
      ],
      "name": "WishClaimed",
      "type": "event"
    },
    {
      "stateMutability": "payable",
      "type": "fallback"
    },
    {
      "inputs": [],
      "name": "MAX_WISH_PER_DRIP",
      "outputs": [
        {
          "internalType": "uint256",
          "name": "",
          "type": "uint256"
        }
      ],
      "stateMutability": "view",
      "type": "function"
    },
    {
      "inputs": [],
      "name": "MEMBERSHIP_DEPOSIT",
      "outputs": [
        {
          "internalType": "uint256",
          "name": "",
          "type": "uint256"
        }
      ],
      "stateMutability": "view",
      "type": "function"
    },
    {
      "inputs": [],
      "name": "MEMBER_REFUND_RATE",
      "outputs": [
        {
          "internalType": "uint256",
          "name": "",
          "type": "uint256"
        }
      ],
      "stateMutability": "view",
      "type": "function"
    },
    {
      "inputs": [],
      "name": "TREASURY_FEE_RATE",
      "outputs": [
        {
          "internalType": "uint256",
          "name": "",
          "type": "uint256"
        }
      ],
      "stateMutability": "view",
      "type": "function"
    },
    {
      "inputs": [
        {
          "internalType": "address",
          "name": "account",
          "type": "address"
        }
      ],
      "name": "canClaimWish",
      "outputs": [
        {
          "internalType": "bool",
          "name": "",
          "type": "bool"
        },
        {
          "internalType": "uint256",
          "name": "",
          "type": "uint256"
        }
      ],
      "stateMutability": "view",
      "type": "function"
    },
    {
      "inputs": [
        {
          "internalType": "address",
          "name": "account",
          "type": "address"
        }
      ],
      "name": "canCreateMembership",
      "outputs": [
        {
          "internalType": "bool",
          "name": "",
          "type": "bool"
        }
      ],
      "stateMutability": "view",
      "type": "function"
    },
    {
      "inputs": [
        {
          "internalType": "address",
          "name": "account",
          "type": "address"
        }
      ],
      "name": "canRedeemDrip",
      "outputs": [
        {
          "internalType": "bool",
          "name": "",
          "type": "bool"
        }
      ],
      "stateMutability": "view",
      "type": "function"
    },
    {
      "inputs": [
        {
          "internalType": "uint256",
          "name": "amount",
          "type": "uint256"
        }
      ],
      "name": "claimWish",
      "outputs": [],
      "stateMutability": "nonpayable",
      "type": "function"
    },
    {
      "inputs": [],
      "name": "createMembership",
      "outputs": [],
      "stateMutability": "payable",
      "type": "function"
    },
    {
      "inputs": [],
      "name": "emergencyWithdraw",
      "outputs": [],
      "stateMutability": "nonpayable",
      "type": "function"
    },
    {
      "inputs": [],
      "name": "getContractStats",
      "outputs": [
        {
          "internalType": "uint256",
          "name": "_totalMembers",
          "type": "uint256"
        },
        {
          "internalType": "uint256",
          "name": "_totalWishClaimed",
          "type": "uint256"
        },
        {
          "internalType": "uint256",
          "name": "_totalMembersAtCap",
          "type": "uint256"
        },
        {
          "internalType": "uint256",
          "name": "_contractBalance",
          "type": "uint256"
        },
        {
          "internalType": "bool",
          "name": "_isPaused",
          "type": "bool"
        }
      ],
      "stateMutability": "view",
      "type": "function"
    },
    {
      "inputs": [
        {
          "internalType": "address",
          "name": "member",
          "type": "address"
        }
      ],
      "name": "getMemberInfo",
      "outputs": [
        {
          "internalType": "uint256",
          "name": "dripTokens",
          "type": "uint256"
        },
        {
          "internalType": "uint256",
          "name": "wishClaimed",
          "type": "uint256"
        },
        {
          "internalType": "uint256",
          "name": "remainingWish",
          "type": "uint256"
        },
        {
          "internalType": "uint256",
          "name": "depositDate",
          "type": "uint256"
        },
        {
          "internalType": "bool",
          "name": "isActive",
          "type": "bool"
        },
        {
          "internalType": "bool",
          "name": "capReached",
          "type": "bool"
        }
      ],
      "stateMutability": "view",
      "type": "function"
    },
    {
      "inputs": [
        {
          "internalType": "address",
          "name": "",
          "type": "address"
        }
      ],
      "name": "hasMembership",
      "outputs": [
        {
          "internalType": "bool",
          "name": "",
          "type": "bool"
        }
      ],
      "stateMutability": "view",
      "type": "function"
    },
    {
      "inputs": [
        {
          "internalType": "address",
          "name": "",
          "type": "address"
        }
      ],
      "name": "members",
      "outputs": [
        {
          "internalType": "uint256",
          "name": "dripTokens",
          "type": "uint256"
        },
        {
          "internalType": "uint256",
          "name": "wishClaimed",
          "type": "uint256"
        },
        {
          "internalType": "uint256",
          "name": "remainingWish",
          "type": "uint256"
        },
        {
          "internalType": "uint256",
          "name": "depositDate",
          "type": "uint256"
        },
        {
          "internalType": "bool",
          "name": "isActive",
          "type": "bool"
        },
        {
          "internalType": "bool",
          "name": "capReached",
          "type": "bool"
        }
      ],
      "stateMutability": "view",
      "type": "function"
    },
    {
      "inputs": [],
      "name": "owner",
      "outputs": [
        {
          "internalType": "address",
          "name": "",
          "type": "address"
        }
      ],
      "stateMutability": "view",
      "type": "function"
    },
    {
      "inputs": [],
      "name": "paused",
      "outputs": [
        {
          "internalType": "bool",
          "name": "",
          "type": "bool"
        }
      ],
      "stateMutability": "view",
      "type": "function"
    },
    {
      "inputs": [],
      "name": "redeemDrip",
      "outputs": [],
      "stateMutability": "nonpayable",
      "type": "function"
    },
    {
      "inputs": [
        {
          "internalType": "bool",
          "name": "_paused",
          "type": "bool"
        }
      ],
      "name": "setPaused",
      "outputs": [],
      "stateMutability": "nonpayable",
      "type": "function"
    },
    {
      "inputs": [],
      "name": "totalMembers",
      "outputs": [
        {
          "internalType": "uint256",
          "name": "",
          "type": "uint256"
        }
      ],
      "stateMutability": "view",
      "type": "function"
    },
    {
      "inputs": [],
      "name": "totalMembersAtCap",
      "outputs": [
        {
          "internalType": "uint256",
          "name": "",
          "type": "uint256"
        }
      ],
      "stateMutability": "view",
      "type": "function"
    },
    {
      "inputs": [],
      "name": "totalWishClaimed",
      "outputs": [
        {
          "internalType": "uint256",
          "name": "",
          "type": "uint256"
        }
      ],
      "stateMutability": "view",
      "type": "function"
    },
    {
      "inputs": [
        {
          "internalType": "address",
          "name": "newOwner",
          "type": "address"
        }
      ],
      "name": "transferOwnership",
      "outputs": [],
      "stateMutability": "nonpayable",
      "type": "function"
    },
    {
      "inputs": [],
      "name": "treasury",
      "outputs": [
        {
          "internalType": "address",
          "name": "",
          "type": "address"
        }
      ],
      "stateMutability": "view",
      "type": "function"
    },
    {
      "inputs": [
        {
          "internalType": "address",
          "name": "newTreasury",
          "type": "address"
        }
      ],
      "name": "updateTreasury",
      "outputs": [],
      "stateMutability": "nonpayable",
      "type": "function"
    },
    {
      "stateMutability": "payable",
      "type": "receive"
    }
  ],
  "bytecode": "0x60806040526004805460ff1916905560006005819055600681905560075534801561002957600080fd5b506040516114a83803806114a8833981016040819052610048916100d5565b6001600160a01b0381166100a25760405162461bcd60e51b815260206004820152601f60248201527f54726561737572792063616e6e6f74206265207a65726f206164647265737300604482015260640160405180910390fd5b60018054336001600160a01b031991821617909155600080549091166001600160a01b0392909216919091179055610105565b6000602082840312156100e757600080fd5b81516001600160a01b03811681146100fe57600080fd5b9392505050565b611394806101146000396000f3fe60806040526004361061014f5760003560e01c80637f51bb1f116100b6578063db2e21bc1161006f578063db2e21bc1461051a578063dfe6b5d61461052f578063ede90c9b14610573578063f220b9ec14610588578063f2fde38b146105a4578063fe1e9217146105c4576101a1565b80637f51bb1f146104485780638c78e3d1146104685780638da5cb5b1461047d578063a2dd69431461049d578063a88db6ad146104b3578063da4257d1146104e3576101a1565b8063248e1f1411610108578063248e1f14146103165780635c975abb146103465780635f1231ea1461036057806361d027b3146103f257806368b0d83c1461042a57806376e9255914610432576101a1565b806308ae4b0c146101f957806311dea34c14610285578063145d6ed1146102a757806316c38b3c146102cb57806319db305f146102eb5780631d37c3e314610301576101a1565b366101a15760405162461bcd60e51b815260206004820152601f60248201527f557365206372656174654d656d6265727368697028292066756e6374696f6e0060448201526064015b60405180910390fd5b60405162461bcd60e51b815260206004820152602760248201527f46756e6374696f6e206e6f7420666f756e64202d20636865636b20636f6e74726044820152666163742041424960c81b6064820152608401610198565b34801561020557600080fd5b5061024f610214366004611218565b600260208190526000918252604090912080546001820154928201546003830154600490930154919392909160ff8082169161010090041686565b60408051968752602087019590955293850192909252606084015215156080830152151560a082015260c0015b60405180910390f35b34801561029157600080fd5b506102a56102a0366004611248565b6105e4565b005b3480156102b357600080fd5b506102bd6103e881565b60405190815260200161027c565b3480156102d757600080fd5b506102a56102e6366004611261565b61086e565b3480156102f757600080fd5b506102bd60065481565b34801561030d57600080fd5b506102bd605081565b34801561032257600080fd5b50610336610331366004611218565b6108ab565b604051901515815260200161027c565b34801561035257600080fd5b506004546103369060ff1681565b34801561036c57600080fd5b5061024f61037b366004611218565b6001600160a01b0316600090815260026020818152604092839020835160c081018552815480825260018301549382018490529382015494810185905260038201546060820181905260049092015460ff80821615156080840181905261010090920416151560a090920182905293959294939192565b3480156103fe57600080fd5b50600054610412906001600160a01b031681565b6040516001600160a01b03909116815260200161027c565b6102a56108dd565b34801561043e57600080fd5b506102bd60055481565b34801561045457600080fd5b506102a5610463366004611218565b610aad565b34801561047457600080fd5b506102a5610b4f565b34801561048957600080fd5b50600154610412906001600160a01b031681565b3480156104a957600080fd5b506102bd60075481565b3480156104bf57600080fd5b506103366104ce366004611218565b60036020526000908152604090205460ff1681565b3480156104ef57600080fd5b506105036104fe366004611218565b610e04565b60408051921515835260208301919091520161027c565b34801561052657600080fd5b506102a5610ea8565b34801561053b57600080fd5b506005546006546007546004546040805194855260208501939093529183015247606083015260ff161515608082015260a00161027c565b34801561057f57600080fd5b506102bd601481565b34801561059457600080fd5b506102bd670de0b6b3a764000081565b3480156105b057600080fd5b506102a56105bf366004611218565b610f0e565b3480156105d057600080fd5b506103366105df366004611218565b610fa8565b60045460ff16156106075760405162461bcd60e51b815260040161019890611283565b3360009081526003602052604090205460ff16801561063857503360009081526002602052604090206004015460ff165b61067b5760405162461bcd60e51b81526020600482015260146024820152732737ba1030b71030b1ba34bb329036b2b6b132b960611b6044820152606401610198565b60008111801561068d57506101f48111155b6106d95760405162461bcd60e51b815260206004820181905260248201527f436c61696d20312d353030205749534820706572207472616e73616374696f6e6044820152606401610198565b3360009081526002602052604090206004810154610100900460ff16156107425760405162461bcd60e51b815260206004820152601d60248201527f416c7265616479207265616368656420313030302057495348206361700000006044820152606401610198565b81816002015410156107965760405162461bcd60e51b815260206004820152601760248201527f496e73756666696369656e7420574953482071756f74610000000000000000006044820152606401610198565b818160010160008282546107aa91906112c2565b92505081905550818160020160008282546107c591906112d5565b909155505060018101546103e81161080b5760048101805461ff001916610100179055600780549060006107f8836112e8565b91905055506108063361103c565b610853565b600181015460028201546040805191825260006020830152849133917f94ef9708a6982557fe58d2a05cf9efa4c9cf9379909e79aa0473b8fd8c93be1c910160405180910390a45b816006600082825461086591906112c2565b90915550505050565b6001546001600160a01b031633146108985760405162461bcd60e51b815260040161019890611301565b6004805460ff1916911515919091179055565b6001600160a01b03811660009081526003602052604081205460ff161580156108d7575060045460ff16155b92915050565b60045460ff16156109005760405162461bcd60e51b815260040161019890611283565b670de0b6b3a764000034146109575760405162461bcd60e51b815260206004820152601b60248201527f4d757374206465706f7369742065786163746c792031204842415200000000006044820152606401610198565b3360009081526003602052604090205460ff16156109b05760405162461bcd60e51b81526020600482015260166024820152750416c726561647920686173206d656d626572736869760541b6044820152606401610198565b6040805160c0810182526001808252600060208084018281526103e885870190815242606087019081526080870186815260a0880186815233875260028087528a882099518a5594518989015592519388019390935551600380880191909155915160049096018054915161ffff1990921696151561ff00191696909617610100911515919091021790945592909252918120805460ff19169092179091556005805491610a5d836112e8565b909155505060408051670de0b6b3a764000081524260208201526103e89160019133917f5846edddc392ae60f8c09aa7af3062c782c76a60cfd514a65e726a86c7cb737b910160405180910390a4565b6001546001600160a01b03163314610ad75760405162461bcd60e51b815260040161019890611301565b6001600160a01b038116610b2d5760405162461bcd60e51b815260206004820152601860248201527f496e76616c6964207472656173757279206164647265737300000000000000006044820152606401610198565b600080546001600160a01b0319166001600160a01b0392909216919091179055565b60045460ff1615610b725760405162461bcd60e51b815260040161019890611283565b3360009081526003602052604090205460ff168015610ba357503360009081526002602052604090206004015460ff165b610be65760405162461bcd60e51b81526020600482015260146024820152732737ba1030b71030b1ba34bb329036b2b6b132b960611b6044820152606401610198565b3360009081526002602052604090206004810154610100900460ff16610c615760405162461bcd60e51b815260206004820152602a60248201527f4d7573742072656163682031303030205749534820636170206265666f7265206044820152693932b232b6b83a34b7b760b11b6064820152608401610198565b8054610caf5760405162461bcd60e51b815260206004820152601860248201527f4e6f204452495020746f6b656e7320746f2072656465656d00000000000000006044820152606401610198565b60006064610cc66050670de0b6b3a7640000611325565b610cd0919061133c565b905060006064610ce96014670de0b6b3a7640000611325565b610cf3919061133c565b905081471015610d455760405162461bcd60e51b815260206004820152601d60248201527f496e73756666696369656e7420636f6e74726163742062616c616e63650000006044820152606401610198565b600080845560048401805460ff19169055604051339184156108fc02918591818181858888f19350505050158015610d81573d6000803e3d6000fd5b50600080546040516001600160a01b039091169183156108fc02918491818181858888f19350505050158015610dbb573d6000803e3d6000fd5b506001830154604080519182524260208301528291849133917fdb339f2f1466bf8f1488f69e7ed98c0f3ea56f0605c34a9871afe7861569c223910160405180910390a4505050565b6001600160a01b038116600090815260036020526040812054819060ff161580610e4a57506001600160a01b03831660009081526002602052604090206004015460ff16155b80610e7557506001600160a01b038316600090815260026020526040902060040154610100900460ff165b15610e8557506000928392509050565b50506001600160a01b031660009081526002602081905260409091200154600191565b6001546001600160a01b03163314610ed25760405162461bcd60e51b815260040161019890611301565b6001546040516001600160a01b03909116904780156108fc02916000818181858888f19350505050158015610f0b573d6000803e3d6000fd5b50565b6001546001600160a01b03163314610f385760405162461bcd60e51b815260040161019890611301565b6001600160a01b038116610f865760405162461bcd60e51b8152602060048201526015602482015274496e76616c6964206f776e6572206164647265737360581b6044820152606401610198565b600180546001600160a01b0319166001600160a01b0392909216919091179055565b6001600160a01b03811660009081526003602052604081205460ff168015610feb57506001600160a01b03821660009081526002602052604090206004015460ff165b801561101757506001600160a01b038216600090815260026020526040902060040154610100900460ff165b80156108d75750506001600160a01b0316600090815260026020526040902054151590565b6001600160a01b038116600090815260026020526040812090606461106a6050670de0b6b3a7640000611325565b611074919061133c565b90506000606461108d6014670de0b6b3a7640000611325565b611097919061133c565b9050814710156110f55760405162461bcd60e51b8152602060048201526024808201527f496e73756666696369656e742062616c616e636520666f72204175746f52656c6044820152636561736560e01b6064820152608401610198565b600080845560048401805460ff19169055600284018190556040516001600160a01b0386169184156108fc02918591818181858888f19350505050158015611141573d6000803e3d6000fd5b50600080546040516001600160a01b039091169183156108fc02918491818181858888f1935050505015801561117b573d6000803e3d6000fd5b506103e882856001600160a01b03167f8f2f224c1a419694949a338651ccadb660ff50a82ca734391d5d6392a0c7127f426040516111bb91815260200190565b60405180910390a460028301546040805160008152600160208201526103e892916001600160a01b038816917f94ef9708a6982557fe58d2a05cf9efa4c9cf9379909e79aa0473b8fd8c93be1c910160405180910390a450505050565b60006020828403121561122a57600080fd5b81356001600160a01b038116811461124157600080fd5b9392505050565b60006020828403121561125a57600080fd5b5035919050565b60006020828403121561127357600080fd5b8135801515811461124157600080fd5b6020808252600f908201526e10dbdb9d1c9858dd081c185d5cd959608a1b604082015260600190565b634e487b7160e01b600052601160045260246000fd5b808201808211156108d7576108d76112ac565b818103818111156108d7576108d76112ac565b6000600182016112fa576112fa6112ac565b5060010190565b6020808252600a908201526927b7363c9037bbb732b960b11b604082015260600190565b80820281158282048414176108d7576108d76112ac565b60008261135957634e487b7160e01b600052601260045260246000fd5b50049056fea2646970667358221220c41aa4f7cfd8583652ba05f2fab714274cab26ea836cb86329ee13caac72ee0464736f6c63430008130033",
  "linkReferences": {},
  "deployedLinkReferences": {}
}